{
    "abi": [
        {
            "type": "constructor",
            "inputs": [],
            "stateMutability": "nonpayable"
        },
        {
            "type": "function",
            "name": "approve",
            "inputs": [
                {
                    "name": "to",
                    "type": "address",
                    "internalType": "address"
                },
                {
                    "name": "tokenId",
                    "type": "uint256",
                    "internalType": "uint256"
                }
            ],
            "outputs": [],
            "stateMutability": "nonpayable"
        },
        {
            "type": "function",
            "name": "balanceOf",
            "inputs": [
                {
                    "name": "owner",
                    "type": "address",
                    "internalType": "address"
                }
            ],
            "outputs": [
                {
                    "name": "",
                    "type": "uint256",
                    "internalType": "uint256"
                }
            ],
            "stateMutability": "view"
        },
        {
            "type": "function",
            "name": "getApproved",
            "inputs": [
                {
                    "name": "tokenId",
                    "type": "uint256",
                    "internalType": "uint256"
                }
            ],
            "outputs": [
                {
                    "name": "",
                    "type": "address",
                    "internalType": "address"
                }
            ],
            "stateMutability": "view"
        },
        {
            "type": "function",
            "name": "isApprovedForAll",
            "inputs": [
                {
                    "name": "owner",
                    "type": "address",
                    "internalType": "address"
                },
                {
                    "name": "operator",
                    "type": "address",
                    "internalType": "address"
                }
            ],
            "outputs": [
                {
                    "name": "",
                    "type": "bool",
                    "internalType": "bool"
                }
            ],
            "stateMutability": "view"
        },
        {
            "type": "function",
            "name": "mint",
            "inputs": [],
            "outputs": [],
            "stateMutability": "payable"
        },
        {
            "type": "function",
            "name": "mintPrice",
            "inputs": [],
            "outputs": [
                {
                    "name": "",
                    "type": "uint256",
                    "internalType": "uint256"
                }
            ],
            "stateMutability": "view"
        },
        {
            "type": "function",
            "name": "name",
            "inputs": [],
            "outputs": [
                {
                    "name": "",
                    "type": "string",
                    "internalType": "string"
                }
            ],
            "stateMutability": "view"
        },
        {
            "type": "function",
            "name": "owner",
            "inputs": [],
            "outputs": [
                {
                    "name": "",
                    "type": "address",
                    "internalType": "address"
                }
            ],
            "stateMutability": "view"
        },
        {
            "type": "function",
            "name": "ownerOf",
            "inputs": [
                {
                    "name": "tokenId",
                    "type": "uint256",
                    "internalType": "uint256"
                }
            ],
            "outputs": [
                {
                    "name": "",
                    "type": "address",
                    "internalType": "address"
                }
            ],
            "stateMutability": "view"
        },
        {
            "type": "function",
            "name": "renounceOwnership",
            "inputs": [],
            "outputs": [],
            "stateMutability": "nonpayable"
        },
        {
            "type": "function",
            "name": "safeTransferFrom",
            "inputs": [
                {
                    "name": "from",
                    "type": "address",
                    "internalType": "address"
                },
                {
                    "name": "to",
                    "type": "address",
                    "internalType": "address"
                },
                {
                    "name": "tokenId",
                    "type": "uint256",
                    "internalType": "uint256"
                }
            ],
            "outputs": [],
            "stateMutability": "nonpayable"
        },
        {
            "type": "function",
            "name": "safeTransferFrom",
            "inputs": [
                {
                    "name": "from",
                    "type": "address",
                    "internalType": "address"
                },
                {
                    "name": "to",
                    "type": "address",
                    "internalType": "address"
                },
                {
                    "name": "tokenId",
                    "type": "uint256",
                    "internalType": "uint256"
                },
                {
                    "name": "data",
                    "type": "bytes",
                    "internalType": "bytes"
                }
            ],
            "outputs": [],
            "stateMutability": "nonpayable"
        },
        {
            "type": "function",
            "name": "setApprovalForAll",
            "inputs": [
                {
                    "name": "operator",
                    "type": "address",
                    "internalType": "address"
                },
                {
                    "name": "approved",
                    "type": "bool",
                    "internalType": "bool"
                }
            ],
            "outputs": [],
            "stateMutability": "nonpayable"
        },
        {
            "type": "function",
            "name": "setBaseURI",
            "inputs": [
                {
                    "name": "_newbaseURI",
                    "type": "string",
                    "internalType": "string"
                }
            ],
            "outputs": [],
            "stateMutability": "nonpayable"
        },
        {
            "type": "function",
            "name": "setMintPrice",
            "inputs": [
                {
                    "name": "_mintPrice",
                    "type": "uint256",
                    "internalType": "uint256"
                }
            ],
            "outputs": [],
            "stateMutability": "nonpayable"
        },
        {
            "type": "function",
            "name": "supportsInterface",
            "inputs": [
                {
                    "name": "interfaceId",
                    "type": "bytes4",
                    "internalType": "bytes4"
                }
            ],
            "outputs": [
                {
                    "name": "",
                    "type": "bool",
                    "internalType": "bool"
                }
            ],
            "stateMutability": "view"
        },
        {
            "type": "function",
            "name": "symbol",
            "inputs": [],
            "outputs": [
                {
                    "name": "",
                    "type": "string",
                    "internalType": "string"
                }
            ],
            "stateMutability": "view"
        },
        {
            "type": "function",
            "name": "tokenURI",
            "inputs": [
                {
                    "name": "tokenId",
                    "type": "uint256",
                    "internalType": "uint256"
                }
            ],
            "outputs": [
                {
                    "name": "",
                    "type": "string",
                    "internalType": "string"
                }
            ],
            "stateMutability": "view"
        },
        {
            "type": "function",
            "name": "totalNFT",
            "inputs": [],
            "outputs": [
                {
                    "name": "",
                    "type": "uint256",
                    "internalType": "uint256"
                }
            ],
            "stateMutability": "view"
        },
        {
            "type": "function",
            "name": "transferFrom",
            "inputs": [
                {
                    "name": "from",
                    "type": "address",
                    "internalType": "address"
                },
                {
                    "name": "to",
                    "type": "address",
                    "internalType": "address"
                },
                {
                    "name": "tokenId",
                    "type": "uint256",
                    "internalType": "uint256"
                }
            ],
            "outputs": [],
            "stateMutability": "nonpayable"
        },
        {
            "type": "function",
            "name": "transferOwnership",
            "inputs": [
                {
                    "name": "newOwner",
                    "type": "address",
                    "internalType": "address"
                }
            ],
            "outputs": [],
            "stateMutability": "nonpayable"
        },
        {
            "type": "function",
            "name": "withraw",
            "inputs": [],
            "outputs": [],
            "stateMutability": "nonpayable"
        },
        {
            "type": "event",
            "name": "Approval",
            "inputs": [
                {
                    "name": "owner",
                    "type": "address",
                    "indexed": true,
                    "internalType": "address"
                },
                {
                    "name": "approved",
                    "type": "address",
                    "indexed": true,
                    "internalType": "address"
                },
                {
                    "name": "tokenId",
                    "type": "uint256",
                    "indexed": true,
                    "internalType": "uint256"
                }
            ],
            "anonymous": false
        },
        {
            "type": "event",
            "name": "ApprovalForAll",
            "inputs": [
                {
                    "name": "owner",
                    "type": "address",
                    "indexed": true,
                    "internalType": "address"
                },
                {
                    "name": "operator",
                    "type": "address",
                    "indexed": true,
                    "internalType": "address"
                },
                {
                    "name": "approved",
                    "type": "bool",
                    "indexed": false,
                    "internalType": "bool"
                }
            ],
            "anonymous": false
        },
        {
            "type": "event",
            "name": "BatchMetadataUpdate",
            "inputs": [
                {
                    "name": "_fromTokenId",
                    "type": "uint256",
                    "indexed": false,
                    "internalType": "uint256"
                },
                {
                    "name": "_toTokenId",
                    "type": "uint256",
                    "indexed": false,
                    "internalType": "uint256"
                }
            ],
            "anonymous": false
        },
        {
            "type": "event",
            "name": "MetadataUpdate",
            "inputs": [
                {
                    "name": "_tokenId",
                    "type": "uint256",
                    "indexed": false,
                    "internalType": "uint256"
                }
            ],
            "anonymous": false
        },
        {
            "type": "event",
            "name": "OwnershipTransferred",
            "inputs": [
                {
                    "name": "previousOwner",
                    "type": "address",
                    "indexed": true,
                    "internalType": "address"
                },
                {
                    "name": "newOwner",
                    "type": "address",
                    "indexed": true,
                    "internalType": "address"
                }
            ],
            "anonymous": false
        },
        {
            "type": "event",
            "name": "Transfer",
            "inputs": [
                {
                    "name": "from",
                    "type": "address",
                    "indexed": true,
                    "internalType": "address"
                },
                {
                    "name": "to",
                    "type": "address",
                    "indexed": true,
                    "internalType": "address"
                },
                {
                    "name": "tokenId",
                    "type": "uint256",
                    "indexed": true,
                    "internalType": "uint256"
                }
            ],
            "anonymous": false
        },
        {
            "type": "error",
            "name": "ERC721IncorrectOwner",
            "inputs": [
                {
                    "name": "sender",
                    "type": "address",
                    "internalType": "address"
                },
                {
                    "name": "tokenId",
                    "type": "uint256",
                    "internalType": "uint256"
                },
                {
                    "name": "owner",
                    "type": "address",
                    "internalType": "address"
                }
            ]
        },
        {
            "type": "error",
            "name": "ERC721InsufficientApproval",
            "inputs": [
                {
                    "name": "operator",
                    "type": "address",
                    "internalType": "address"
                },
                {
                    "name": "tokenId",
                    "type": "uint256",
                    "internalType": "uint256"
                }
            ]
        },
        {
            "type": "error",
            "name": "ERC721InvalidApprover",
            "inputs": [
                {
                    "name": "approver",
                    "type": "address",
                    "internalType": "address"
                }
            ]
        },
        {
            "type": "error",
            "name": "ERC721InvalidOperator",
            "inputs": [
                {
                    "name": "operator",
                    "type": "address",
                    "internalType": "address"
                }
            ]
        },
        {
            "type": "error",
            "name": "ERC721InvalidOwner",
            "inputs": [
                {
                    "name": "owner",
                    "type": "address",
                    "internalType": "address"
                }
            ]
        },
        {
            "type": "error",
            "name": "ERC721InvalidReceiver",
            "inputs": [
                {
                    "name": "receiver",
                    "type": "address",
                    "internalType": "address"
                }
            ]
        },
        {
            "type": "error",
            "name": "ERC721InvalidSender",
            "inputs": [
                {
                    "name": "sender",
                    "type": "address",
                    "internalType": "address"
                }
            ]
        },
        {
            "type": "error",
            "name": "ERC721NonexistentToken",
            "inputs": [
                {
                    "name": "tokenId",
                    "type": "uint256",
                    "internalType": "uint256"
                }
            ]
        },
        {
            "type": "error",
            "name": "OwnableInvalidOwner",
            "inputs": [
                {
                    "name": "owner",
                    "type": "address",
                    "internalType": "address"
                }
            ]
        },
        {
            "type": "error",
            "name": "OwnableUnauthorizedAccount",
            "inputs": [
                {
                    "name": "account",
                    "type": "address",
                    "internalType": "address"
                }
            ]
        }
    ],
    "bytecode": {
        "object": "0x608060405266071afd498d0000600a556103e8600c5534801561002157600080fd5b50336040518060400160405280600781526020016611dbdb1913919560ca1b8152506040518060400160405280600481526020016311d3d31160e21b815250816000908161006f91906101b4565b50600161007c82826101b4565b5050506001600160a01b0381166100ad57604051631e4fbdf760e01b81526000600482015260240160405180910390fd5b6100b6816100c1565b506001600955610273565b600780546001600160a01b038381166001600160a01b0319831681179093556040519116919082907f8be0079c531659141344cd1fd0a4f28419497f9722a3daafe3b4186f6b6457e090600090a35050565b634e487b7160e01b600052604160045260246000fd5b600181811c9082168061013d57607f821691505b60208210810361015d57634e487b7160e01b600052602260045260246000fd5b50919050565b601f8211156101af576000816000526020600020601f850160051c8101602086101561018c5750805b601f850160051c820191505b818110156101ab57828155600101610198565b5050505b505050565b81516001600160401b038111156101cd576101cd610113565b6101e1816101db8454610129565b84610163565b602080601f83116001811461021657600084156101fe5750858301515b600019600386901b1c1916600185901b1785556101ab565b600085815260208120601f198616915b8281101561024557888601518255948401946001909101908401610226565b50858210156102635787850151600019600388901b60f8161c191681555b5050505050600190811b01905550565b61152a806102826000396000f3fe6080604052600436106101345760003560e01c806370a08231116100ab578063b88d4fde1161006f578063b88d4fde14610334578063c87b56dd14610354578063e850497a14610374578063e985e9c514610389578063f2fde38b146103a9578063f4a0a528146103c957600080fd5b806370a08231146102ac578063715018a6146102cc5780638da5cb5b146102e157806395d89b41146102ff578063a22cb4651461031457600080fd5b80631249c58b116100fd5780631249c58b1461020e57806323b872dd1461021657806342842e0e1461023657806355f804b3146102565780636352211e146102765780636817c76c1461029657600080fd5b80624563791461013957806301ffc9a71461016257806306fdde0314610192578063081812fc146101b4578063095ea7b3146101ec575b600080fd5b34801561014557600080fd5b5061014f600c5481565b6040519081526020015b60405180910390f35b34801561016e57600080fd5b5061018261017d366004610ff4565b6103e9565b6040519015158152602001610159565b34801561019e57600080fd5b506101a7610414565b6040516101599190611061565b3480156101c057600080fd5b506101d46101cf366004611074565b6104a6565b6040516001600160a01b039091168152602001610159565b3480156101f857600080fd5b5061020c6102073660046110a9565b6104cf565b005b61020c6104de565b34801561022257600080fd5b5061020c6102313660046110d3565b6105bb565b34801561024257600080fd5b5061020c6102513660046110d3565b610646565b34801561026257600080fd5b5061020c61027136600461119b565b610666565b34801561028257600080fd5b506101d4610291366004611074565b61067a565b3480156102a257600080fd5b5061014f600a5481565b3480156102b857600080fd5b5061014f6102c73660046111e4565b610685565b3480156102d857600080fd5b5061020c6106cd565b3480156102ed57600080fd5b506007546001600160a01b03166101d4565b34801561030b57600080fd5b506101a76106e1565b34801561032057600080fd5b5061020c61032f3660046111ff565b6106f0565b34801561034057600080fd5b5061020c61034f36600461123b565b6106fb565b34801561036057600080fd5b506101a761036f366004611074565b610712565b34801561038057600080fd5b5061020c61077a565b34801561039557600080fd5b506101826103a43660046112b7565b6107b2565b3480156103b557600080fd5b5061020c6103c43660046111e4565b6107e0565b3480156103d557600080fd5b5061020c6103e4366004611074565b61081b565b60006001600160e01b03198216632483248360e11b148061040e575061040e82610828565b92915050565b606060008054610423906112ea565b80601f016020809104026020016040519081016040528092919081815260200182805461044f906112ea565b801561049c5780601f106104715761010080835404028352916020019161049c565b820191906000526020600020905b81548152906001019060200180831161047f57829003601f168201915b5050505050905090565b60006104b182610878565b506000828152600460205260409020546001600160a01b031661040e565b6104da8282336108b1565b5050565b600a5434101561054b5760405162461bcd60e51b815260206004820152602d60248201527f4d696e74205072696365206e65656420746f2068617665206d6f72652074686560448201526c371018171818191032ba3432b960991b60648201526084015b60405180910390fd5b600c5460095411156105985760405162461bcd60e51b8152602060048201526016602482015275151bdd185b08139195081b995959081b585d18da195960521b6044820152606401610542565b6105a4336009546108be565b600980549060006105b483611324565b9190505550565b6001600160a01b0382166105e557604051633250574960e11b815260006004820152602401610542565b60006105f28383336108d8565b9050836001600160a01b0316816001600160a01b031614610640576040516364283d7b60e01b81526001600160a01b0380861660048301526024820184905282166044820152606401610542565b50505050565b610661838383604051806020016040528060008152506106fb565b505050565b61066e6109d1565b600b6104da828261139b565b600061040e82610878565b60006001600160a01b0382166106b1576040516322718ad960e21b815260006004820152602401610542565b506001600160a01b031660009081526003602052604090205490565b6106d56109d1565b6106df60006109fe565b565b606060018054610423906112ea565b6104da338383610a50565b6107068484846105bb565b61064084848484610aef565b606061071d82610878565b506000610728610c18565b905060008151116107485760405180602001604052806000815250610773565b8061075284610c27565b60405160200161076392919061145b565b6040516020818303038152906040525b9392505050565b6107826109d1565b6040513390303180156108fc02916000818181858888f193505050501580156107af573d6000803e3d6000fd5b50565b6001600160a01b03918216600090815260056020908152604080832093909416825291909152205460ff1690565b6107e86109d1565b6001600160a01b03811661081257604051631e4fbdf760e01b815260006004820152602401610542565b6107af816109fe565b6108236109d1565b600a55565b60006001600160e01b031982166380ac58cd60e01b148061085957506001600160e01b03198216635b5e139f60e01b145b8061040e57506301ffc9a760e01b6001600160e01b031983161461040e565b6000818152600260205260408120546001600160a01b03168061040e57604051637e27328960e01b815260048101849052602401610542565b6106618383836001610cba565b6104da828260405180602001604052806000815250610dc0565b6000828152600260205260408120546001600160a01b039081169083161561090557610905818486610dd7565b6001600160a01b0381161561094357610922600085600080610cba565b6001600160a01b038116600090815260036020526040902080546000190190555b6001600160a01b03851615610972576001600160a01b0385166000908152600360205260409020805460010190555b60008481526002602052604080822080546001600160a01b0319166001600160a01b0389811691821790925591518793918516917fddf252ad1be2c89b69c2b068fc378daa952ba7f163c4a11628f55a4df523b3ef91a4949350505050565b6007546001600160a01b031633146106df5760405163118cdaa760e01b8152336004820152602401610542565b600780546001600160a01b038381166001600160a01b0319831681179093556040519116919082907f8be0079c531659141344cd1fd0a4f28419497f9722a3daafe3b4186f6b6457e090600090a35050565b6001600160a01b038216610a8257604051630b61174360e31b81526001600160a01b0383166004820152602401610542565b6001600160a01b03838116600081815260056020908152604080832094871680845294825291829020805460ff191686151590811790915591519182527f17307eab39ab6107e8899845ad3d59bd9653f200f220920489ca2b5937696c31910160405180910390a3505050565b6001600160a01b0383163b1561064057604051630a85bd0160e11b81526001600160a01b0384169063150b7a0290610b3190339088908790879060040161149a565b6020604051808303816000875af1925050508015610b6c575060408051601f3d908101601f19168201909252610b69918101906114d7565b60015b610bd5573d808015610b9a576040519150601f19603f3d011682016040523d82523d6000602084013e610b9f565b606091505b508051600003610bcd57604051633250574960e11b81526001600160a01b0385166004820152602401610542565b805181602001fd5b6001600160e01b03198116630a85bd0160e11b14610c1157604051633250574960e11b81526001600160a01b0385166004820152602401610542565b5050505050565b6060600b8054610423906112ea565b60606000610c3483610e3b565b600101905060008167ffffffffffffffff811115610c5457610c5461110f565b6040519080825280601f01601f191660200182016040528015610c7e576020820181803683370190505b5090508181016020015b600019016f181899199a1a9b1b9c1cb0b131b232b360811b600a86061a8153600a8504945084610c8857509392505050565b8080610cce57506001600160a01b03821615155b15610d90576000610cde84610878565b90506001600160a01b03831615801590610d0a5750826001600160a01b0316816001600160a01b031614155b8015610d1d5750610d1b81846107b2565b155b15610d465760405163a9fbf51f60e01b81526001600160a01b0384166004820152602401610542565b8115610d8e5783856001600160a01b0316826001600160a01b03167f8c5be1e5ebec7d5bd14f71427d1e84f3dd0314c0f7b2291e5b200ac8c7c3b92560405160405180910390a45b505b5050600090815260046020526040902080546001600160a01b0319166001600160a01b0392909216919091179055565b610dca8383610f13565b6106616000848484610aef565b610de2838383610f78565b610661576001600160a01b038316610e1057604051637e27328960e01b815260048101829052602401610542565b60405163177e802f60e01b81526001600160a01b038316600482015260248101829052604401610542565b60008072184f03e93ff9f4daa797ed6e38ed64bf6a1f0160401b8310610e7a5772184f03e93ff9f4daa797ed6e38ed64bf6a1f0160401b830492506040015b6d04ee2d6d415b85acef81000000008310610ea6576d04ee2d6d415b85acef8100000000830492506020015b662386f26fc100008310610ec457662386f26fc10000830492506010015b6305f5e1008310610edc576305f5e100830492506008015b6127108310610ef057612710830492506004015b60648310610f02576064830492506002015b600a831061040e5760010192915050565b6001600160a01b038216610f3d57604051633250574960e11b815260006004820152602401610542565b6000610f4b838360006108d8565b90506001600160a01b03811615610661576040516339e3563760e11b815260006004820152602401610542565b60006001600160a01b03831615801590610fd65750826001600160a01b0316846001600160a01b03161480610fb25750610fb284846107b2565b80610fd657506000828152600460205260409020546001600160a01b038481169116145b949350505050565b6001600160e01b0319811681146107af57600080fd5b60006020828403121561100657600080fd5b813561077381610fde565b60005b8381101561102c578181015183820152602001611014565b50506000910152565b6000815180845261104d816020860160208601611011565b601f01601f19169290920160200192915050565b6020815260006107736020830184611035565b60006020828403121561108657600080fd5b5035919050565b80356001600160a01b03811681146110a457600080fd5b919050565b600080604083850312156110bc57600080fd5b6110c58361108d565b946020939093013593505050565b6000806000606084860312156110e857600080fd5b6110f18461108d565b92506110ff6020850161108d565b9150604084013590509250925092565b634e487b7160e01b600052604160045260246000fd5b600067ffffffffffffffff808411156111405761114061110f565b604051601f8501601f19908116603f011681019082821181831017156111685761116861110f565b8160405280935085815286868601111561118157600080fd5b858560208301376000602087830101525050509392505050565b6000602082840312156111ad57600080fd5b813567ffffffffffffffff8111156111c457600080fd5b8201601f810184136111d557600080fd5b610fd684823560208401611125565b6000602082840312156111f657600080fd5b6107738261108d565b6000806040838503121561121257600080fd5b61121b8361108d565b91506020830135801515811461123057600080fd5b809150509250929050565b6000806000806080858703121561125157600080fd5b61125a8561108d565b93506112686020860161108d565b925060408501359150606085013567ffffffffffffffff81111561128b57600080fd5b8501601f8101871361129c57600080fd5b6112ab87823560208401611125565b91505092959194509250565b600080604083850312156112ca57600080fd5b6112d38361108d565b91506112e16020840161108d565b90509250929050565b600181811c908216806112fe57607f821691505b60208210810361131e57634e487b7160e01b600052602260045260246000fd5b50919050565b60006001820161134457634e487b7160e01b600052601160045260246000fd5b5060010190565b601f821115610661576000816000526020600020601f850160051c810160208610156113745750805b601f850160051c820191505b8181101561139357828155600101611380565b505050505050565b815167ffffffffffffffff8111156113b5576113b561110f565b6113c9816113c384546112ea565b8461134b565b602080601f8311600181146113fe57600084156113e65750858301515b600019600386901b1c1916600185901b178555611393565b600085815260208120601f198616915b8281101561142d5788860151825594840194600190910190840161140e565b508582101561144b5787850151600019600388901b60f8161c191681555b5050505050600190811b01905550565b6000835161146d818460208801611011565b835190830190611481818360208801611011565b64173539b7b760d91b9101908152600501949350505050565b6001600160a01b03858116825284166020820152604081018390526080606082018190526000906114cd90830184611035565b9695505050505050565b6000602082840312156114e957600080fd5b815161077381610fde56fea264697066735822122020d83420d44bf2f8e11276db4302c955e41243757babf6199ef3934bc8ea340a64736f6c63430008190033",
        "linkReferences": {}
    },
    "methodIdentifiers": {
        "approve(address,uint256)": "095ea7b3",
        "balanceOf(address)": "70a08231",
        "getApproved(uint256)": "081812fc",
        "isApprovedForAll(address,address)": "e985e9c5",
        "mint()": "1249c58b",
        "mintPrice()": "6817c76c",
        "name()": "06fdde03",
        "owner()": "8da5cb5b",
        "ownerOf(uint256)": "6352211e",
        "renounceOwnership()": "715018a6",
        "safeTransferFrom(address,address,uint256)": "42842e0e",
        "safeTransferFrom(address,address,uint256,bytes)": "b88d4fde",
        "setApprovalForAll(address,bool)": "a22cb465",
        "setBaseURI(string)": "55f804b3",
        "setMintPrice(uint256)": "f4a0a528",
        "supportsInterface(bytes4)": "01ffc9a7",
        "symbol()": "95d89b41",
        "tokenURI(uint256)": "c87b56dd",
        "totalNFT()": "00456379",
        "transferFrom(address,address,uint256)": "23b872dd",
        "transferOwnership(address)": "f2fde38b",
        "withraw()": "e850497a"
    },
    "id": 41
}